:020000040800F2
:1000000000500020F1080108F9990008FB99000848
:10001000FD990008FF990008019A000800000000FF
:10002000000000000000000000000000039A00082B
:10003000059A000800000000079A0008099A0008C5
:100040003909010839090108390901083909010884
:100050003909010839090108390901083909010874
:10006000390901083909010839090108119A0008FC
:100070003909010839090108219A0008319A000854
:10008000390901083909010839090108419A0008AC
:10009000519A0008619A0008719A0008819A000834
:1000A00039090108A19A000839090108390901082C
:1000B00039090108A99A0008B19A0008390901080C
:1000C0003909010839090108390901083909010804
:1000D00039090108B99A00083909010839090108E4
:1000E000390901083909010839090108000000002F
:1000F0000000000000000000000000000000000000
:0C01000000000000000000005FF808F1A3
:1001100010B5054C237833B9044B13B10448AFF341
:1001200000800123237010BD100A00200000000091
:10013000DCA8010808B5034B1BB103490348AFF322
:10014000008008BD00000000140A0020DCA801089F
:10015000F0B44D1E04464F2D40D8DFE805F02828A6
:1001600028283F3F3F3F3D3D283D3D3D3D3D3D3DF6
:100170003D3D3D3D3D3F2A2A2A2A2A2A2A2A283D5A
:100180003D3D3D3D3F3D2A29283F282A2A3D293F24
:100190003F3D3D3D28282828283D28283D283F3F31
:1001A0003D3D3D3F3F3F3D3D3D282A282A2AAAB1FB
:1001B000A3B1D4E90550854210DA4FF0000C26694E
:1001C0006F1C06EB05102D01C0F804C06761715566
:1001D000C0E90223F0BC7047002AEAD10020F0BC3D
:1001E000704700BF10B4C3680A46197852290DD071
:1001F0004F2902D0104610BC70472021C46A033436
:10020000C4620133C36010BC0023A1E7C46A1F218C
:100210000234C462F5E700BF002963D038B5054653
:100220000C462378013B4F2B37D8DFE803F0313100
:10023000315036363B3B3131313131313131313171
:100240003131313131363131313131313131313199
:100250002828313136313131313731313131313690
:100260003B3131313131313131313131313136366A
:100270003137373737363131313131313131A368A8
:100280001B78052B04D1D5F838310133C5F8383146
:10029000D5F81C31B3F5006F08DD38BDA468002C1B
:1002A000BFD138BDE468002CBBD1FAE70133C5F8F3
:1002B0001C312846A168FFF7AFFF2846E168FFF729
:1002C000ABFFD5F81C31013BC5F81C3138BDD5F862
:1002D00044310133C5F84431D5F81C31B3F5006F12
:1002E000DBDCE3E7704700BF7AB32DE9F0410D4650
:1002F0000A4404464FF00008D0F80011571E013D93
:1003000009E00B46BD4201F10101C4F80011E654B9
:1003100084F8046117D0FF2915F8016FF1D1D4E9F1
:100320004232204684F8FF80984701210023D4F808
:100330002821BD420A44C4F82821C4F80011E6541B
:1003400084F80461E7D1BDE8F0817047F0B5016839
:1003500006460A786E2A29D0A2F13003092B30D83C
:100360004FF0000C00206FF00047DFF85CE005E084
:10037000AEFB0434B0EBD40F2A4614DC01313160FB
:100380000D7800EB8000A5F13003FC1ADBB202EB24
:100390004002092BA2F13000EAD9BCF1000F01D0D4
:1003A000C2F13000F0BD4FF0FF30F0BD4B1C0360D8
:1003B0004A78A2F13001092903D819464FF0010CFF
:1003C000D0E70020F0BD00BFCDCCCCCCD0E90532C9
:1003D000934270B50FDA4221002602695D1C02EBE0
:1003E00003141B0166600C308560D154FFF7AEFF2B
:1003F000A060204670BD0024204670BD10B5C368C3
:1004000004461A785F2A0DD06E2A0DD00C30FFF703
:100410009DFF013008D4E3681A785F2A04D10133C4
:10042000E36010BD0020FAE74FF0FF3010BD00BFC1
:10043000F8B5C3681A78542A16D10133C36004464C
:10044000FFF7DCFF021E0FDBD4E905318B420BDA2C
:100450000027052521695E1C01EB03101B01476085
:100460006661CD548260F8BD0020F8BD70B50446C9
:100470000C30FFF76BFF051E3EDDE66863689B1BD3
:100480009D4237DCA26873195207E36004D5725DA0
:10049000242A04BF0133E360092D12DCD4E90503EB
:1004A000984227DA00222169431C01EB00104260C8
:1004B0006361FEB10023C0E9026543600370A0627E
:1004C00070BD082230461A4912F0DEF830B9337A8E
:1004D0002E2B13D05F2B11D0242B0FD0D4E9050382
:1004E000834207DD00222169431C01EB00104260BA
:1004F0006361DFE70020E2E7002070BD737A4E2BD6
:10050000ECD1E26A6369A1691632551B8B42E56240
:10051000F0DA0021152522695E1C6661054E02EBAA
:1005200003101B014160D154C0E90265C7E700BF59
:1005300064BC010870BC010870B5C36804461A7831
:100540000D46422A866A0FD10133E3602046FFF749
:100550008DFF2A4603464C212046FFF7F9FDE3684C
:1005600005461A78422AEFD02846A66270BD00BF21
:100570002DE9F843C3681A78532A30D15A1CC26057
:100580005A78044692B39A1CC2605A785F2A42D0C5
:10059000A2F13000C3B2092B24D800210DE0303B7A
:1005A00099421CD8E1680A78481C1AB1E0600A78C0
:1005B0005F2A39D01946A2F13000C0B201EBC10365
:1005C0000928A2F1410502EB8303E8D9192D06D8C9
:1005D00001EBC10302EB8303373B9942E2D90020D0
:1005E000BDE8F883A2F14103192BD6D9A36803F023
:1005F0000803002B14BF0125002500D1B1B9364BEB
:10060000742103F1A80001E013F81C1F914214D0DB
:100610008342F9D1E3E70023226A9A42DFD9E269F3
:1006200052F82300BDE8F8830133F5E7E3681B784F
:10063000433B012B98BF0D46E1E75E69002E44D095
:10064000D4E905208242D3F818C043DA4FF00009FC
:100650004FF0180827694FEA021E07EB021101321A
:10066000C1F80490626107F80E80C1E9026CA162D2
:1006700045B3D3E90351E36A82420B44E36227DACC
:100680004FF0000C18262369571C03EB02101201CF
:10069000C0F804C067619E54C0E90251E3681B784A
:1006A000422B9DD101462046FFF746FF002896D0F9
:1006B000D4E90832934292DAE1695A1C41F82300E6
:1006C00022628DE7D3E90151D5E7D4E90520CFE7D0
:1006D0000020E3E70021CAE7F8A8010838B504467E
:1006E00029B9C3681A787AB15A1CC2601978682986
:1006F00019D0762908D104F10C052846FFF726FE0B
:10070000E3681A785F2A01D0002038BD01332846FB
:10071000E360FFF71BFEE3681A785F2AF4D101203B
:100720000344E36038BD04F10C00FFF70FFEF2E76D
:10073000C3681A785F2A01D00120704710B55A1C8F
:10074000C2605A7804465F2A05D00C30FFF7FEFDE0
:10075000C043C00F10BD023340F80C3FFFF7F6FD59
:10076000002809DB092805DDE3681A785F2A03D130
:100770000133E360012010BD002010BD28B909E05D
:10078000002908DDC068013940B103782F2BF7D06C
:10079000002070477047FBD180687047704700BFEA
:1007A0000346D0F8100130B1096843680029D868C1
:1007B00000DBE3E770470122C3F81821704700BF50
:1007C000002943D038B505460C4623784C2B33D846
:1007D000DFE803F03032323232273038383232320A
:1007E00032323232323232323232323230323232EB
:1007F00032323232323232323232323032323232DB
:1008000030323232323230383232323232323232C6
:1008100032323232323030323232303030323230C4
:100820003000284604F10801FFF7BAFF10B1037841
:100830002F2B00D0002038BD2846A168FFF7C0FF4D
:100840000028F8D1E468002CBFD1F3E700207047FE
:10085000F0B514465268A5684B1C1344AB420E46D3
:10086000074683B011D8E5686DB9D4E9000339466D
:100870003246184408F09EF9D4E9003233449D54BE
:1008800061683144616003B0F0BDE268002AFAD1CA
:1008900055B16D00AB42FCD82946206812F078F8BB
:1008A00038B12060A560DEE7022B4FF00205F0D8DA
:1008B000F2E70190206811F0F1FB0122019BC4E9ED
:1008C0000033C4E90232DEE72DE9F04F0F46002382
:1008D000C26885B011780446B942039300F02782BC
:1008E00099464FF0010803AED4F830A0C4F8308028
:1008F00013784C2B7FD0542B00F09C80732B4DD061
:10090000662B24D15378702B00F09980204601F09B
:100910003DFD0546002800F087800378322B00F06B
:10092000B280342B00F061810AD8332B08D1836860
:10093000032B05D8DFE813F032015E010400040048
:100940000025C4F830A0284605B0BDE8F08FA3F11B
:100950003001092935D8204601F0E0FE054600287F
:1009600062D0E3681A78492A00F0A180C4F830A068
:100970002A4600232E212046FFF7EAFB306000289C
:1009800041D0E26800F10C061378BB42ACD1039D64
:1009900001322846E26005B0BDE8F08F5378722B33
:1009A00000F0E580702BB1D10232E260204600F009
:1009B0000BFA002302464B212046FFF7C9FB0546F0
:1009C0001DE06F2B24D0692B7ED153786C2B9DD1E9
:1009D00000250232E2605078002800F0978145211E
:1009E0002046FFF771FF2A46034631212046FFF7D4
:1009F000AFFB054603E0204601F0DEFF0546C4F8E4
:100A000030A0002DB4D10025284605B0BDE8F08FF8
:100A100053786E2B7FF47AAF02322046E26001F009
:100A20007DFE054600289CD12846C4F830A005B0BC
:100A3000BDE8F08F2046FFF7FBFC0546DFE7931C7F
:100A4000E3609378542B5FD02046FFF7D7FC6FF01C
:100A5000004398423FF474AF431C3FF471AF013040
:100A6000D4E905329342BFF66BAF0621226903F148
:100A7000010C02EB03151B01C5F80490C4F814C067
:100A8000D154A86072E78068E26A8168036802391D
:100A90000A44E2621A78732A25D0D0F80CB0BBF170
:100AA000030F3FF64DAFDFE80BF0793381B0013330
:100AB000E360204600F0BCFB2A46034604212046A2
:100AC000FFF746FB05469AE7742B7FF41FAF537878
:100AD0006C2B7FF41BAF0232E260204601F044F839
:100AE000E268054677E759787429D6D199780029C4
:100AF000D3D1204601F038F803462A463721204654
:100B0000FFF726FB05467AE703320020E260A7E7FD
:100B10001978702920D06D291ED04FF0000B732A50
:100B200012D15A78502A0FD19B786BB9204600F029
:100B30007FFB0346BBF1000FDFD01A463921204668
:100B4000FFF706FB0346D8E7204600F03DF90346D1
:100B5000BBF1000FF1D1D0E758788842DDD1E168D0
:100B600008785F28DBD10131E1601A78D5E70232DD
:100B7000E260204600F0F8FF0546204601F0CEFD79
:100B8000E36883461A78492A00F0C48003462A465F
:100B900001212046FFF7DCFA054630E72A4600230C
:100BA00036212046FFF7D4FA054628E7AA681268DE
:100BB0005178632900F0CC801A78662A00F0D8803A
:100BC0002046019300F000F98346019B1A78632ABE
:100BD00072D159786C296FD1997800296CD145214F
:100BE0002046FFF771FE024675E0E3681A785F2A37
:100BF00000F0A680204600F0E7F82A460346372199
:100C00002046FFF7A5FA0546F9E6712A17D15A786A
:100C1000752A14D19A7892B9204600F0D5F8834607
:100C2000204600F0D1F802462046019200F0CCF8B0
:100C3000019A034670BB0546C4F830A083E61A78D3
:100C4000662A00F09C806E2A7FF47AAE5B78772B60
:100C500002D0612B7FF474AE5F212046FFF734FE93
:100C60008346204600F080FFE36802461978452954
:100C700000F0A580702900F0948069297FF460AEAF
:100C80005B786C2B7FF45CAE0190204600F09CF802
:100C90000346019A3C212046FFF75AFA5A4603467A
:100CA0003B212046FFF754FA2A4603463A212046C4
:100CB000FFF74EFA0546A2E6642A1AD1597874293C
:100CC00017D19978A9B9204601F028FDE3680246BA
:100CD0001978492957D0134639215A462046FFF73B
:100CE00037FA2A46034638212046FFF731FA0546EF
:100CF00085E6702A05D15A78742A02D19B78002B98
:100D0000E1D0204600F060F80246E4E70546C4F86A
:100D100030A018E60133E360204600F089FA5A4615
:100D2000034604212046FFF713FA03462FE701325A
:100D3000C2602E211A4605B0BDE8F04FFFF708BA91
:100D40000133E36045212046FFF7BEFD0346D4E6AC
:100D50001278A2F16301012903D9723A012A3FF600
:100D60002BAF2046019300F0FFFE019B83462DE749
:100D70002046019301F00AFB019B834626E72046AB
:100D800001F004FB4BE701330190E360204600F0E3
:100D90004FFA019A034604212046FFF7D9F902468B
:100DA00099E7597869297FF4CBAD02330190E3606C
:100DB00045212046FFF788FD019A03466AE7013383
:100DC000E360002366E700BFC26813784C2B00F095
:100DD0009280542B00F09180732B2DE9F041044652
:100DE00053D0662B31D0A3F1300109290CD820460D
:100DF00001F094FC0546002879D0E3681A78492A66
:100E00007DD02846BDE8F0816F2B4FD0692B40F094
:100E1000838053786C2B00F0A280204601F0B6FA54
:100E20000546002863D00378322B45D0342B00F0E0
:100E300093815CD8332B5AD18368032B57D8DFE8D2
:100E400013F0CF000301560056005378702BE4D105
:100E5000931CC3609378542B00F02481FFF7CEFAE3
:100E6000C34333F0004342D00130D4E9053293420A
:100E70003DDA0027062122695E1C02EB03151B01E7
:100E80006F606661D154A860BBE75378722B51D074
:100E9000702BC2D10232C260FFF796FF00230246D8
:100EA0004B212046BDE8F041FFF752B953786E2B35
:100EB000B3D10232C2609AE78168E36A8A680E6839
:100EC000023A1344E3623378732B5AD17278742A4E
:100ED00057D1B278002A54D1204600F045FE03468F
:100EE0002A462046BDE8F0413721FFF731B90025F9
:100EF0002846BDE8F08101F05FBDFFF799BA0133E4
:100F0000E360204600F094F92A4603460421204677
:100F1000BDE8F041FFF71CB9742B7FF47EAF537826
:100F20006C2B7FF47AAF0232E26000F01DFEE268C3
:100F3000054617E00232C26000F016FE0546204664
:100F400001F0ECFBE36806461A78492A20D00346F4
:100F50002A462046BDE8F0410121FFF7F9B80025F7
:100F60000232E2605378002BC1D045212046FFF7C2
:100F7000ABFC2A46034631212046BDE8F041FFF78D
:100F8000E7B8CF68032FB2D8DFE807F02A0F326343
:100F90000133E360204600F04BF93246034604215A
:100FA0002046FFF7D5F80346D2E73278702A00F0E2
:100FB00082806D2A7FD00027732B77D17378502BD6
:100FC00074D1B378002B71D1204600F031F903467B
:100FD000002F85D01A4639212046FFF7B9F87EE761
:100FE0002A462046BDE8F04100233621FFF7B0B87D
:100FF000AB681B685A78632A00F0C2803378662B8E
:1010000000F0CC802046FFF7DFFE07463378632BE5
:1010100040F0858072786C2A40F08180B278002A96
:101020007DD145212046FFF74FFC064633463A4620
:1010300039212046FFF78CF82A46034638212046FE
:10104000BDE8F041FFF784B82046FFF7BDFE034638
:1010500046E7712B3CD17378752B39D1B378BBBB84
:101060002046FFF7B1FE06462046FFF7ADFE0746D5
:101070002046FFF7A9FE034600283FF438AF3A4662
:101080003C212046FFF764F8324603463B212046C8
:10109000FFF75EF82A4603463A212046BDE8F041B4
:1010A000FFF756B80332C2600020DEE62046FFF7A5
:1010B0008BFE03468CE7717891427FF47CAFE26847
:1010C00011785F297FF478AF0132E260337872E7FC
:1010D0003378662B6ED06E2B7FF409AF7378772B45
:1010E00002D0612B7FF403AF5F212046FFF7ECFBBA
:1010F0000646204600F038FDE36807461A78452A80
:1011000068D0702A5AD0692A7FF4F1AE5B786C2BD4
:101110007FF4EDAE2046FFF757FE0346AFE7642BA2
:1011200027D17278742A24D1B27812BB204601F0FC
:10113000F5FAE36806461A78492A7FF477AF013357
:10114000E360204600F074F832460346042120464E
:10115000FEF7FEFF064669E7E3681A785F2A7FF428
:1011600073AF0133E36045212046FFF7ADFB034633
:10117000B6E6702B17D02046FFF726FE064655E749
:101180001B78A3F16302012A03D9723B012B3FF6BE
:1011900035AF204600F0E8FC074637E7204601F06F
:1011A000F5F8074632E77378742BE4D1B378002B57
:1011B000BCD0E0E7204601F0E9F854E75A78692A04
:1011C0007FF495AE0233E36045212046FFF77CFBB8
:1011D000034654E70133E360002350E738B5C268A3
:1011E00013784C2B1DD0044605D8493B012B13D84E
:1011F000BDE838404EE0582B0ED101231A44056B50
:10120000C2600363FFF7E0FDE36825631A78452AAF
:101210000BD10133E36038BD2046BDE8384000F013
:10122000A3BCBDE8384001F0C7BB002038BD00BFFB
:1012300070B5C26804461378866A452B82B04FF0B9
:1012400000031ED001AD01930CE000232F212046A6
:10125000FEF77EFF286000F10C0548B1E3681A78BC
:10126000452A08D02046FFF7B9FF02460028ECD1F6
:10127000002002B070BD01980133E360A66202B0A5
:1012800070BD0132C2602F211A4602B0BDE8704025
:10129000FEF75EBFC1680A78493A012A02D80131D7
:1012A000C160C5E7002070472DE9F047C2680446D9
:1012B0001378472B01D0542B34D1E16A01F1140388
:1012C000E3621378542B5BD0472B40F09E80531C75
:1012D000E3605378002B00F09880931CE360537810
:1012E000562B00F29080402B40F28F80413B152B13
:1012F00000F28B80DFE813F0C700890089008900C5
:101300008900890089008900890089008900890095
:1013100089008900890089008900D3008900E200E2
:101320008900F6000E4600F057FA054600286CD0FA
:10133000002E6ED0A368DB076BD42B784D2BA3F166
:101340001C01A3F14F0200F083807FD804297FD9CC
:10135000022B5BD1EA6813784D2BA3F11C00A3F19B
:101360004F0103D000F2E08104284FD89268EA6070
:1013700013784D2BA3F11C00A3F14F01F2D1F5E737
:10138000531CE3605378002B3FD0931CE3605378E9
:10139000413B352B39D8DFE813F0490138002901EA
:1013A000380038001E0138001301BC01B1013800BB
:1013B0003800380038003800380038003800A601FE
:1013C000990138008C01810138003800380038005C
:1013D000380038003800380038003800380067011D
:1013E0003800380038003800540138003800380020
:1013F000380038003800380038003800380038002D
:10140000380038000001722B77D000252846BDE84F
:10141000F087E3681B78002BF8D0452BF6D02946DF
:101420000B78042B00F0B0810AD94D2BA3F14F02A9
:1014300002D00FD9012A10D889680029F0D10DE017
:10144000022B0AD1C9680029EAD107E0012ADDD8B8
:10145000AD6872E71C3B042BEED90021204601F059
:1014600003F903460028D0D036B92A78022A03D1DE
:101470000278292A08BF86602A462046BDE8F04740
:101480000321FEF765BE00212046FFF70DFF002374
:10149000024617212046BDE8F047FEF759BE204618
:1014A00000F09AF905462046FEF790FF2A460346CB
:1014B00016212046BDE8F047FEF74ABE937800218A
:1014C00020462BB1D31CE36093786E2B00F07A8119
:1014D000FFF7EAFE0023024649212046BDE8F04717
:1014E000FEF736BE204600F077F9002302461321AE
:1014F0002046BDE8F047FEF72BBE04F10C00FEF7D6
:1015000025FF012881DDE3681A78002A3FF47DAFCA
:101510005F1CE7601B785F2B7FF477AF00224FF0F2
:1015200041099046451E3B78002B3FF46EAF242BBB
:1015300040F0FE807B78532B00F03D815F2B00F064
:101540003881242B7FF461AF1946D4E90503984212
:1015500080F233812669471C06EB00130001C3F8B3
:101560000480676106F80090E768023D02379960E1
:10157000E760002A00F0FD8040212046FEF7E8FDEC
:10158000024600283FF441AF002DCCDC2046BDE8E8
:10159000F04700233F21FEF7DBBD76212046FFF711
:1015A0009DF800283FF431AF00212046FFF77CFE74
:1015B0000023024610212046BDE8F047FEF7C8BDD3
:1015C000204600F009F90023024614212046BDE818
:1015D000F047FEF7BDBD204600F0C6FA00230246E4
:1015E0000E212046BDE8F047FEF7B2BD204600F0D0
:1015F000BBFA054604F10C00FEF7A8FE0028FFF632
:1016000004AFE3681A785F2A7FF4FFAE0133E3602A
:10161000204600F0A9FAE36A0246591DE1622B4612
:101620002046BDE8F0470B21FEF792BD2046FFF7AC
:10163000D5FD0023024630212046BDE8F047FEF7E5
:1016400087BD68212046FFF749F800283FF4DDAE4A
:1016500000212046FFF728FE002302460F212046E6
:10166000BDE8F047FEF774BD00212046FFF736F8CD
:1016700000283FF4CAAE00212046FFF72FF80028CB
:101680003FF4C3AE00212046FFF70EFE00230246C2
:1016900011212046BDE8F047FEF75ABD204600F074
:1016A0009BF80023024615212046BDE8F047FEF7CF
:1016B0004FBD0F31E162204600F056FA002302468A
:1016C00009212046BDE8F047FEF742BD0A31E1623C
:1016D000204600F049FA002302460A212046BDE8D0
:1016E000F047FEF735BD204600F03EFA00230246E3
:1016F0000D212046BDE8F047FEF72ABD204600F048
:1017000033FA0023024612212046BDE8F047FEF7D7
:101710001FBD204600F028FA002302460C21204677
:10172000BDE8F047FEF714BD01293FF66FAE1DE698
:101730003E46002104E016F8013FE3B1242B1AD005
:101740000131A942F7DBD4E90530984217DD206961
:101750005E1C00EB0313C3F80480666183F800800D
:10176000E0689F604718C3F80480D9606D1AE7608D
:10177000FFE61A4608E7D4E905308342E7DBE36871
:1017800000250B44E36041E68B6863B119780829B2
:1017900001F1FF3209D806293FF65FAE012A02D8CF
:1017A000DB68002BF2D1012158E6353918BF012141
:1017B00054E62E21C9E62F21C7E6E368002502334F
:1017C000E36023E6FFF770FD002302464A2120462E
:1017D000BDE8F047FEF7BCBC2DE9F047C2680446FF
:1017E000137884B04E3B0C2B08D8DFE803F02807B1
:1017F00007070713072107070707760000F08EFF8A
:10180000E36805461B78492B00F0A980284604B000
:10181000BDE8F0875378742B00F0AB800021FEF711
:10182000A7FEE36805461B78492BEFD12046F0E080
:1018300000F074FF0546284604B0BDE8F087013289
:10184000C26003A9012200F05BFE0746002800F0F9
:101850008B8000212046FEF7C5FCE16880460E78AB
:101860002EB34FF0000ADFF8FC92442E6AD0A6F1A6
:101870003003DBB21C2B40F2FD80A6F16103192B73
:1018800000F2FA80204600F049FF0546BAF1000F49
:1018900006D001212B4652462046FEF759FC05464C
:1018A000532E08D1AA46E1680E78002EDDD100251E
:1018B0003D60ABE70546E1680E78452E00F08C8070
:1018C000002DF4D0D4E908329342F0DAE269581CD2
:1018D00042F82350AA462062E6E701320021C260A6
:1018E000FFF7E2FC054600283ED0E3681978452959
:1018F0003AD15A1CE2605978732900F0F4806429C7
:1019000000F091802046FFF767FF034650B1027850
:10191000462A07D0482A05D001902046FEF708FF46
:10192000019B08B32A78032A05D1EA68117829298E
:1019300004BF002191602A4620460221FEF708FCE0
:10194000054663E74B78204603F0DF03542B52D063
:1019500000F0E4FE0546BAF1000F9AD1ABE718B1EA
:10196000D4E9083293424EDB0025284604B0BDE896
:10197000F0870232D0E905318B42C26080F2B1803B
:101980000021032022695E1C6661744E02EB031580
:101990001B016960D154C5E90260204600F0BEFE1B
:1019A0002A46034601212046FEF7D2FBE36AE2689D
:1019B0000333E36213780546492B7FF427AF0028F1
:1019C000D2D0D4E908329342CEDAE1695A1C41F808
:1019D0002300204622621CE0152329FA03F3DB07CB
:1019E00058D5204600F09AFE002D3FF463AFAA467A
:1019F000012105464EE700F0B7F80546BAF1000FA1
:101A00007FF447AF57E7E1695A1C41F823002046AD
:101A10002262FFF73FFC2A46034604212046FEF7D8
:101A200097FB0546F2E602332046E360FEF7E6FC4C
:101A3000071E99DB2046FFF7CFFE064628B1037844
:101A4000462B02D0482B40F08280D4E905239A42ED
:101A500063DA4FF0000E4720216902F1010C01EB1F
:101A600002131201C3F804E0C4F814C08854C3E997
:101A7000026757E75546B0E7552E30D0532E64D154
:101A800001212046FEF774FD0546BAF1000F7FF4F0
:101A900000AF07E7492E42D0542E4CD0452E09D036
:101AA0004D2E7FF404AF002D3FF401AF0131AA4663
:101AB000E160F9E63D60002D3FF456AFB8F1000F4C
:101AC00004D0039BCDF80C80C8F80830E3681A787E
:101AD000452A7FF449AF0133039DE36096E65546FE
:101AE0007FE7002559E702332046E360FEF720FE3A
:101AF00000283FF439AFD4E905239A420DDA0020DB
:101B00000E262169571C6761154F01EB0213120164
:101B100058608854C3E9027604E7002302E7002DE9
:101B20003FF4C5AE0131E1602046FFF781FBAA46D4
:101B300004210546AEE62046FEF77AFCAA46054695
:101B4000BAF1000F7FF4A5AEB5E65546A4E72046EE
:101B5000FEF7EEFD00287FF478AF05E798BC01089A
:101B600088BC0108FF0308102DE9F041C168044654
:101B70000B7882B0722B58D0562B56D04B2B54D0AA
:101B8000442B00F09E80A3F130024A2A00F290809C
:101B9000DFE812F02D012D012D012D012D012D0168
:101BA0002D012D012D012D018E008E008E008E0045
:101BB0008E008E008E0001028E0044018E008E0089
:101BC000600166018E008E008E008E008E00410244
:101BD0002D01740182018E0090019E01C201E90174
:101BE0008E008E008E008E002D018E008E008E00E5
:101BF0008E008E008E0010011001100110011001E6
:101C0000100110011001100110018E0010011001CF
:101C1000100110018E008E008E0010011001520183
:101C2000100110011001100110010022204601A92D
:101C300000F066FC054600283AD0E36820461B7891
:101C4000462B3AD0FFF790FF2860002830D0037869
:101C50001F3B012B05D8019A836882602A68019294
:101C60002B60019D25B3D4E90832934220DA28463F
:101C7000E1695A1C41F82350226202B0BDE8F081AC
:101C80000123056B0363FFF79FF8256302460023DA
:101C900043212046FEF75CFA0546019040B1E36817
:101CA0001A782AB15A1CE2601B78452B00F0A780F5
:101CB0000025284602B0BDE8F08100F0F9FC28605C
:101CC000C3E74B7803F0DF024F2AAED0773B012BFE
:101CD000ABD94B1CC3604B78002BE9D08B1CC36085
:101CE0004B78463B302BE3D801A252F823F000BFDB
:101CF00047200008B11C0008B11C0008B11C0008F6
:101D0000B11C0008B11C0008B11C0008B11C00087F
:101D1000B11C0008B11C0008B11C0008B11C00086F
:101D2000B11C0008B11C0008811C0008B11C00088F
:101D3000B11C0008B11C0008B11C0008B11C00084F
:101D4000B11C0008B11C0008B11C0008B11C00083F
:101D5000B11C0008B11C0008B11C0008E3200008F9
:101D6000B11C0008BD200008872100085D21000883
:101D700033210008B11C0008092100087D22000859
:101D8000B11C0008B11C0008B11C0008B11C0008FF
:101D900055220008B11C00083F220008B11C0008B1
:101DA000B11C000815220008811C0008EB21000866
:101DB000B1210008C048613B03EB8303D4E905254A
:101DC000AA4200EB830380F2C58200272726206900
:101DD000013100EB02156F60571C120167618654D8
:101DE0005868E26AAB600244E160E26261E7204663
:101DF000FFF7F2FC05460190002D3FF459AFD4E9FE
:101E000008329342BFF654AFE1695A1C41F823509F
:101E1000019D2262284602B0BDE8F0810131E160F7
:101E20002046FFF7A1FE0023024625212046FEF7AB
:101E30008FF905460190DFE70131E1602046FEF7AA
:101E400015FB0023024628212046FEF781F90546AE
:101E50000190D1E7204600F02BFC05460190CBE72E
:101E60000131E1602046FFF77FFE00230246262174
:101E70002046FEF76DF905460190BDE70131E160AE
:101E80002046FFF771FE0023024624212046FEF77C
:101E90005FF905460190AFE70131E1602046FFF7A9
:101EA00063FE0023024622212046FEF751F9054633
:101EB0000190A1E70131E1602046FFF755FE0023C4
:101EC000024623212046FEF743F90546019093E799
:101ED0004B78A3F13002092A05D95F2B03D0413B8F
:101EE000192B00F2FC8100212046FEF741FBE3683C
:101EF00001901A780546492A7FF4DBAE0133E3608E
:101F00002046FFF795F92A46034604212046FEF7AE
:101F10001FF9054601906FE72046FEF789FAE6684B
:101F2000019033780546492B7FF466AF636B002B35
:101F300040F0E28100283FF4BBAED4E908218A4298
:101F4000BFF6B6AEE069511C40F8225021623278EB
:101F5000493A012A05D801362046E660FFF768F9BC
:101F600003462A46D1E701312046E160FEF77EFABA
:101F7000E36801901A780546492A00F095812046C9
:101F8000FFF7F2FD21210246019B2046FEF7E0F813
:101F90000546019030E74D1CE5604B785F2B00F063
:101FA0008181303B092B00F28C812B46194601338D
:101FB000E3601A78303A092AF8D9D4E90520824238
:101FC000A3EB0507BFF674AE0020D4F810C002F1F1
:101FD000010E0CEB0216874270604FEA0212C4F841
:101FE00014E07FF765AE70600CF80200C6E9025796
:101FF0004A785F2A7FF45CAE1D460135E5602046D5
:10200000FFF7B2FD324603462A212046FEF7A0F82C
:1020100005460190F0E601312046E160FFF7A4FD9E
:10202000054600283FF444AE2046FFF79DFD0346D9
:1020300000283FF43DAE2A462B212046FEF788F8C3
:1020400005460190D8E6D0E90532934280F28681B8
:1020500000272C2500695E1C00EB03121B01576052
:1020600001926661C5548B78303BDBB2092B94BF7B
:1020700001233B46938103D804F10C00FEF766F977
:102080002046019DFFF770FD019BA8609B68002B17
:102090003FF40EAE04F10C00FEF758F9E268137835
:1020A00013B1531CE3601378A3F17302019D5342F3
:1020B0005341EB81FDE500BFBCA90108D0E9053221
:1020C0009342BFF6F5AD00210E2022695E1C6661C9
:1020D000A44C02EB03151B016960D154C5E9024011
:1020E000E7E5D0E905329342BFF6E2AD04200021D6
:1020F00022695E1C66619C4C02EB0315834069609B
:10210000D154C5E90240D4E5D0E90532934280F2CA
:102110002181002627210269581C02EB03151B01AF
:102120006E606061D154E36A904A0433AA60E3624E
:10213000BFE5D0E90532934280F20C8100262721C9
:102140000269581C02EB03151B016E606061D154DB
:10215000E36A874A0933AA60E362AAE5D0E9053257
:10216000934280F2F780002627210269581C02EB77
:1021700003151B016E606061D154E36A7D4A0A3326
:10218000AA60E36295E5D0E90532934280F2E280ED
:10219000002627210269581C02EB03151B016E6003
:1021A0006061D154E36A744A0933AA60E36280E54E
:1021B0008B785F2B00F0C480FEF708F90546002DF0
:1021C0003FF476ADE3681A785F2A7FF471AD01338E
:1021D000E3602046FFF7C8FC2A4603462D2120462F
:1021E000FDF7B6FF0546019006E6D0E905329342B9
:1021F00080F2B080002627210269581C02EB0315EB
:102200001B016E606061D154E36A5C4A0733AA60C7
:10221000E3624EE5D0E90532934280F29B800026CE
:1022200027210269581C02EB03151B016E606061D7
:10223000D154E36A524A0833AA60E36239E5FFF7F2
:1022400093FC002302464B212046FDF781FF054603
:102250000190D1E5D0E9053293427BDA00262721AF
:102260000269581C02EB03151B016E606061D154BA
:10227000E36A444A1133AA60E3621AE5D0E9053201
:10228000934267DA002627210269581C02EB0315E6
:102290001B016E606061D154E36A3B4A0833AA6057
:1022A000E36206E50026A8E60133E3602046FEF778
:1022B000BFFF2A46034604212046FDF749FF01904F
:1022C0005DE60123256B20462363FEF77DFD256334
:1022D000064600283FF4ECACE3681A7889E620460D
:1022E000FFF77AFA0546019000283FF4E1AC037845
:1022F000182B7FF484ADDCE4731CE3602046D4F833
:102300001480276AE56AFEF793FFE26803461278B5
:10231000492A06D0E562E660019DC4F81480276270
:102320006AE5019A002A3FF4C3ACD4E9081081425F
:10233000BFF6BEACE569481C45F821202062E4E503
:1023400001230331056BC1600363FEF73DFD256387
:10235000054634E7002301939B68FFDE00231B70D2
:10236000FFDE00BFA4BC01089CBC010800AC010852
:10237000C4AB0108ECAB0108D8AB010814AC0108F0
:1023800028AC010850AC01083CAC0108F8B5C368A2
:1023900006461F785FBB4FF0000E43210022384DE8
:1023A0008B1A03EBD37302EB630318012C5805EB74
:1023B000031C2078B84206D08CBF19465A1C8A42AA
:1023C000EED10020F8BD60787045F5D1D6E9053230
:1023D0009342F6DA0025322132695C1C02EB0310CD
:1023E0001B0145607461D154C0F808C0F8BD5A1C87
:1023F000C26093F801E01F78BEF1000F02D1762F82
:10240000CBD0C8E79A1CC260762F93F801E01BD1AD
:10241000AEF13004E3B2092BBFD8FEF727F8D6E9B6
:1024200005318B420246CCDA002531695F1C01EB95
:10243000031045601B017761002AC2D03326456036
:10244000CE54C0E90242F8BD632FA6D1BEF1760F8B
:10245000A3D1D0E90C34B3FA83F35B094363FFF7EC
:1024600083FB736B024633B1002335213046FDF701
:102470006FFE7463F8BD34213046FDF769FEF8E75E
:1024800064AC0108002330B5C26883B001931378AF
:1024900023B3044601AD12E04F2B16D02046FFF7C0
:1024A00063FB0246D0B100232E212046FDF750FEEB
:1024B000286098B1E26800F10C05137843B1452B10
:1024C00006D02E2B04D0522BE6D15378452BE5D1E4
:1024D000019818B1C36823B103B030BD002003B028
:1024E00030BD826811782729F6D19268117C0929BC
:1024F000F2D15168E26A521AE2628360ECE700BFEF
:102500002DE9F04F0D46171E044615BF4FF01E0A69
:102510004FF01B0A4FF01D094FF01A0914BF4FF07E
:102520001C084FF019082E464FF0010BC16883B00C
:102530000B78722B14D0562B12D04B2B10D0442B6F
:1025400006D00FB9462B55D0304603B0BDE8F08F0A
:102550004A7802F0DF004F2802D0773A012AF0D8FB
:102560004A1C722BE26013D0562B27D04B2B1FD066
:102570004B78002B39D08B1CE360497878294ED0FA
:102580006F2921D1E26A002309324F21E26204E07F
:10259000E36A41460933E362002300222046FDF747
:1025A000D7FD306008B3E16800F108060B78C0E79A
:1025B000E36A51460633E3620023EEE7E36A4946E5
:1025C0000933E3620023E8E74F293BD1D4E90B321A
:1025D0000933C4E90B3B204601910092FEF7F4FB5E
:1025E000009A03460199226328BB0026304603B0B7
:1025F000BDE8F08FAE42A7D01D241E201C2105E0AF
:10260000192A15D003F10805AE429DD02B681A781F
:102610001A2A0AD01B2AF3D118702B68F2E7E26A53
:10262000002311324D21E262B7E71C702B68E9E705
:1026300019702B68E6E7E26810784528D5D1013299
:10264000E260AAE77729D0D1E36A20460633E36245
:10265000FFF718FF03460028C7D0E2681178452924
:10266000C3D15021EBE700BF70B5C36805461A78A7
:102670004A2A1AD081B12846FFF776FA044690B16B
:102680002846FFF7FFFE034668B122462846BDE80C
:1026900070402921FDF75CBD28460C46FFF7F2FE8D
:1026A00003460028F1D1002070BD0133C360E2E78A
:1026B00010B50446806810F480200BD1A26BB2F5EF
:1026C000006F06D8511CE368A1631978462907D02A
:1026D000A26310BDE3681A78462A01D0002010BD1D
:1026E0005A1CE2605A780121592A04BF0233E36080
:1026F0002046FFF7B9FF01462046FDF773FDE3686A
:102700001A78452A04BF0133E360A36818BF00208C
:102710005B03DED4A26B013ADAE700BFF8B5C2680A
:1027200004461378A3F1300109294FD9A3F16101BF
:10273000192914D86F2B04D153786E2B04BF0232A1
:10274000C2602046FFF722FE054610B10378322B07
:1027500049D0E368197842293FD02846F8BDA3F153
:10276000430101296CD94C2B5AD0552B63D1537896
:102770006C2B00F0D080742B5DD1531CC36051785A
:1027800074295BD10232C260FDF738FE0028C0F226
:10279000EF80D4E90532934280F2EA800021482696
:1027A00022695F1C02EB03151B0169606761D65447
:1027B000D4E908329342A86080F2DA80E069E268E6
:1027C000591C40F8235021621178C4E7FDF74EFEF2
:1027D000E368054619784229BFD129462046BDE85D
:1027E000F840FDF7A9BE8268E36A91680733126872
:1027F0000B44E36213786C2BABD15378692BA8D1CF
:102800009378002BA5D12046FDF730FE2A460346DB
:1028100037212046FDF79CFCE368054619789AE7C6
:102820000132C260FDF722FE054620B12046FDF7C9
:102830007FFF00288DD100252846F8BD00258AE7B6
:10284000806A18B1017851B3182928D0432B30D1B0
:102850005378492B00F09080A3F131010429EAD884
:10286000303B0232DEB2E260D4E905318B4280F2C5
:1028700097800027216903F1010C01EB03156F60BC
:102880001B01C4F814C0002800F090804FF0070C22
:102890006F6001F803C02E72E86011785BE7C168D1
:1028A000E36A0B44E362117843290B46D0D04429F4
:1028B000C4D15178303905292AD8DFE801F0031D49
:1028C000262923204FF0010CD4E90531951C8B42B9
:1028D000E56062DA002621695F1C01EB03156E607A
:1028E0001B01676100285ED008276E60CF5485F811
:1028F00008C0E86091782EE74FF0020CE4E74FF053
:10290000050CE1E74FF0040CDEE74FF0030CDBE7CA
:10291000194600251FE7531CC36051786C298DD1DF
:102920000232C260FFF7AEFDE368064608B31978CD
:10293000452983D101332046E360FDF75FFD002880
:1029400016DBD4E90532934212DA002146272269C8
:1029500003F1010C02EB03151B016960C4F814C0FC
:10296000D754D4E908329342C5E90260FFF626AF96
:10297000E36800251978EEE6531CE3609378A3F131
:102980003101042915D80332E260303B2046DEB223
:10299000FFF7EAF8A06AE26866E700259178DAE6D0
:1029A00000251178D7E605469178D4E605461178DA
:1029B000D1E600255178CEE6F8B5C26813784C2BE5
:1029C00032D1531CC360517805465F2934D05A294F
:1029D0000CD10133EB6000212846FEF765FCEB6863
:1029E0001A78452A20D10133EB60F8BDFFF7BCF817
:1029F0000246C8B10378272B06D18368197C19B128
:102A00005968EB6A5B1AEB62E86804786E2C0DD0AB
:102A10003D21452C38D0034603E0EB601C78452C63
:102A200012D00133002CF8D10020F8BD431CEB601C
:102A300044783E211846ECE7931CC36092785A2AEA
:102A400018BF0020CDD1C4E71C1AD5E905639E420A
:102A500018DA0027D5F810C006F1010E0CEB0613AA
:102A6000BC425F604FEA0616C5F814E00ADD5F60FD
:102A70000CF80670C3E902042846FDF769FBEB6811
:102A80001A78AEE70023F7E70024DEE72DE9F04FE0
:102A9000044697B0002A74D053681546012B70DCA9
:102AA000D0F81C21B2F5806F6BDC0E46591C6960B2
:102AB000D0F81871D0F82C0102F1010C02A9CDE96F
:102AC0000250C4F81CC1C4F82C11002F40F0DA8069
:102AD00095F800C0BCF1500F01F27482DFE81CF0E1
:102AE000320A230123014C05D10AD905090AFC0940
:102AF000D709B009890962093B091409ED08C6081C
:102B00009F0861083A081308EC07C5079E07770776
:102B10004C07FF00FF00FF00DA00DA00DA00DA00FD
:102B2000DA00DA00DA000C020C02DA00DA00410204
:102B30006F0225027B02E101DF02E1019D019D019F
:102B400056041204E903C203720A9B038F033B037A
:102B50003003A9069906000200025A015A016406D0
:102B60005206320603062507FE06D706B006720A8D
:102B700027050005D9047D04A50ADA00790ADA00E0
:102B8000DA000123C4F8183117B0BDE8F08FAA6845
:102B900093681B685978632902F0D8833146204630
:102BA00005F10C0303F064FE0746002842F0C683DB
:102BB000AB681A78322A02F098859B68CB4918686E
:102BC00006F06EF8EB6820B99A681178032902F0D4
:102BD000B386314620469A6803F0FAFDD5F808809E
:102BE000C349D8F80830D3F80090484606F058F8A2
:102BF0000746002842F06B85D4F80031FF2B0ED138
:102C00001946D4E9423284F8FF00204698473B46F3
:102C1000D4F82821C4F800710132C4F828215B22BD
:102C2000591CC4F80011E25484F80421EB683146C1
:102C3000DA682046FFF72AFFD4F80031FF2B0FD1C6
:102C400000261946D4E94232204684F8FF609847AE
:102C50003346D4F82821C4F800610132C4F8282191
:102C60005D22591CC4F80011E25484F80421AB68B9
:102C70001A78322A02F080846B68D4F81C210398F9
:102C8000013B013AC4F82C016B60C4F81C2117B059
:102C9000BDE8F08F00220021D4F81431CDE90751AE
:102CA000D4F81011069306ABA9460991C4F8143163
:102CB000002A35D031462046FFF7E8FE089B002B5E
:102CC00001F08B85069BC4F814310FB1C4F8108154
:102CD0006B68D4F81C210398013B013AD2E7D4F881
:102CE00014A15346BAF1000F0ED0996849B95A6839
:102CF0001278A2F11900022802F20E82944502F025
:102D0000F3811B68002BF0D1A9460023D4F81021D1
:102D1000CDE9079306ABCDF818A00992C4F8143199
:102D2000D9F80820C6E731462046AA68FFF7AEFE6C
:102D300016F0040A01F0A087D4F80031FF2B0FD160
:102D400000271946D4E94232204684F8FF7098479C
:102D50003B46D4F82821C4F800710132C4F8282178
:102D60002E22591CC4F80011E25484F80421D5F82D
:102D70000C8098F80030472B02F0D1814246204663
:102D80003146FFF783FE6B68D4F81C210398013BA2
:102D9000013A77E7AA681378272B02F054800027BE
:102DA000D4F80011FF290ED1D4E942324FF00008C7
:102DB000204684F8FF8098474146D4F82831AA6815
:102DC0000133C4F828312823481CC4F80001635497
:102DD000204684F804313146FFF758FED4F800311C
:102DE000FF2B02F004812922591CC4F80011E2547F
:102DF00084F804212B783E2B02F00C82082F01F07E
:102E000065872046EA683146FFF740FE6B68D4F8D4
:102E10001C210398013B013A34E7AA681AB13146F4
:102E20002046FFF733FEEB68002B02F02881D4F830
:102E30000031FD2B0ED90027E7541946D4E9423260
:102E4000204698473B46D4F82821C4F80071013247
:102E5000C4F82821DFF89C804FF02C094FF0000ABD
:102E6000194608F1010B0CE00B460131C345C4F8CB
:102E7000001104F8039084F8049101F0C78418F855
:102E8000019FFF29F0D1D4E94232204684F8FFA007
:102E900098470121D4F8282100230A44C4F82821A6
:102EA000E4E70021D4F81401D4F8103106AACDE9E2
:102EB0000751C4F81421069031462046EA68099368
:102EC000FFF7E4FD089B002B01F07C866B680699F8
:102ED000D4F81C210398C4F81411013B013AD1E63F
:102EE0000123C4F818316B68013BCBE694BE01089E
:102EF00098BE01086CBE0108D4F82031D5F80890BE
:102F00002BB999F80070052F02F0D2811F4699F86D
:102F10000030232B06D02A789A4203D0242B01F0CC
:102F20001681A946D4F814A1EFE6B30601F1718722
:102F3000AA68002A02F0868116F0400126F0600699
:102F400002F084812046D4F8143105F10C02314698
:102F500003F0F6F86B68D4F81C210398013B013AA2
:102F600090E616F00408AE6841F0D685D6E9006117
:102F700000293FF487AE06EB010909F1FF39D4F8C7
:102F80000011013E09E00B460131B145C4F80011C2
:102F9000E75484F8047101F0F185FF2916F8017FE8
:102FA000F1D1D4E94232204684F8FF8098470121CC
:102FB000D4F8282100230A44C4F82821E5E7204654
:102FC000AA683146FFF762FD6B68D4F81C210398AC
:102FD000013B013A56E6D4F814A100225146D4F838
:102FE00010310DF1180BCDE906A5CDE90823CDF878
:102FF00000A0C4F814B1002902F03A844FF001088F
:10300000B246C1465E46009F15E0BB688BB9B8F179
:10301000030F02F2128197E80F008CE80F004EF8C0
:10302000406C0BEB0816C4F8146108F10108C7F8EE
:1030300008903F684FB17B6816AA1B7802EB081E08
:10304000193B022BAEF1400CDFD9EA68514620460D
:10305000FFF71CFD009A089B5646C4F81421BBB923
:10306000B8F1010F0CD00BEB08180AAF58F80C2C74
:1030700031462046A8F1100802F05AFD4745F5D127
:1030800031462046D4F8143105F1080203F088FADD
:103090006B68D4F81C210398013B013AF2E5B5F9BD
:1030A0000E30002B41F09086AA68DB4B9168994264
:1030B00001F0848531462046FFF7E8FCD4F8003162
:1030C000FF2B0FD100261946D4E94232204684F85E
:1030D000FF6098473346D4F82821C4F800610132D4
:1030E000C4F828212022591CC4F80011E25484F8A5
:1030F0000421B5F90C30002B41F0BB83C74F984633
:103100005F2607F105090BE00B460131B945C4F80C
:103110000011E65484F8046101F0DD8317F8016FB3
:10312000FF29F1D1D4E94232204684F8FF80984744
:103130000121D4F8282100230A44C4F82821E5E716
:10314000EB681B78392B3FF422AD0123C4F818310A
:103150006B68013B96E5D5E9028798F80030322B81
:1031600001F09486342B42F02484D4F80031FF2BF4
:1031700010D14FF000091946D4E94232204684F8B4
:10318000FF9098474B46D4F82821C4F800910132AB
:10319000C4F828212822591CC4F80011E25484F8EC
:1031A000042131462046D8F80820FFF76FFCD4F8F8
:1031B0000031FF2B10D14FF000081946D4E94232FC
:1031C000204684F8FF8098474346D4F82821C4F865
:1031D00000810132C4F828212922591CC4F80011A9
:1031E000E25484F804213A462046314603F0F0FACE
:1031F0006B68D4F81C210398013B013A42E5204654
:10320000AA68314603F0A8FA6B68D4F81C21039829
:10321000013B013A36E5824F4FF06F084FF000094D
:10322000D4F8001107F1080A0CE00B460131BA4549
:10323000C4F8001104F8038084F8048101F0F480DC
:1032400017F8018FFF29F0D1D4E94232204684F8E3
:10325000FF9098470121D4F8282100230A44C4F89C
:103260002821E4E76E4F4FF06F084FF00009D4F8C3
:10327000001107F1080A0CE00B460131BA45C4F809
:10328000001104F8038084F8048101F0708017F8BD
:10329000018FFF29F0D1D4E94232204684F8FF9013
:1032A00098470121D4F8282100230A44C4F8282192
:1032B000E4E7D5F808905B4E6F274FF0000AD9F885
:1032C0000880D4F8001106F1070B0BE00A46013123
:1032D000B345C4F80011A75484F8047101F0548078
:1032E00016F8017FFF29F1D1D4E94232204684F853
:1032F000FFA098470121D4F8283100220B44C4F8DC
:103300002831E5E7D5E902281AB131462046FFF712
:10331000BDFBD4F80031FF2B0DD100271946D4E9AD
:103320004232204684F8FF7098473B46D4F8282163
:103330000132C4F828217B27581CC4F8000131460B
:10334000E7544246204684F80471FFF79FFBD4F807
:103350000011FF290CD1D4E942320026204684F81E
:10336000FF6098473146D4F828310133C4F828313A
:103370007D234A1CC4F80021635484F804316B682F
:10338000D4F81C210398013B013A7BE4264F4FF00F
:1033900074084FF00009D4F8001107F11D0A0CE081
:1033A0000B460131BA45C4F8001104F8038084F8D3
:1033B000048100F0078717F8018FFF29F0D1D4E9C5
:1033C0004232204684F8FF9098470121D4F8282102
:1033D00000230A44C4F82821E4E72046A968FDF741
:1033E000EFF94FF0000A002802F0A68103782F2B96
:1033F00041F031828368002B01F02D82C0680AF110
:10340000010A0028F2D1AB681A460AF1FF33904650
:10341000A146009301950DE05CAA01085CBE01087D
:103420007CBE010870BE0108ECBC01080137BA453A
:1034300041F3E281424631464846C9F82471FFF71C
:1034400025FB009B9F42F1DADC4C2C25D9F80011BA
:1034500004F1010B0BE00A460131A345C9F8001144
:1034600009F8025089F80451E0D014F8015FFF29EF
:10347000F1D14FF00003484689F8FF30D9E94232D4
:1034800098470121D9F8283100220B44C9F8283186
:10349000E3E7CB4F4FF06E084FF00009D4F800116E
:1034A00007F1190A0CE00B460131BA45C4F80011C6
:1034B00004F8038084F8048100F0628617F8018F15
:1034C000FF29F0D1D4E94232204684F8FF90984792
:1034D0000121D4F8282100230A44C4F82821E4E774
:1034E000B84F4FF074084FF00009D4F8001107F1FD
:1034F000150A0CE00B460131BA45C4F8001104F876
:10350000038084F8048100F02E8617F8018FFF29CC
:10351000F0D1D4E94232204684F8FF909847012147
:10352000D4F8282100230A44C4F82821E4E7A64E51
:103530007B274FF00008D4F8001106F10D090BE0CD
:103540000B460131B145C4F80011E75484F8047109
:1035500001F0758016F8017FFF29F1D1D4E94232DC
:10356000204684F8FF8098470121D4F828210023C1
:103570000A44C4F82821E5E70023D4F81421D5F83B
:1035800008800092C4F81431B8F1000F01F0D3871D
:103590000DF1180B1F4618465A46D4F810E1C2E93F
:1035A0000038C2E9020E98F8001013464D2907F1C1
:1035B0000107A1F11C09A1F14F0C01F03C8100F2BF
:1035C000CA85B9F1040F41F236810229C4F81421E9
:1035D00016D1D8F80C8098F80030472B02F0C6803E
:1035E0000BEB071C98F800304D2BA3F11C01A3F145
:1035F0004F0201F04F8501F24A85042941F24A85C4
:1036000098F80030042B04D1CDE904E804ABC4F8E9
:10361000103131462046EA68FFF738FA98F8003052
:10362000042B02D1049BC4F810314FF02008A946A6
:103630000BEB071757F8085CE5B9D4F80011FF2920
:103640000BD1D4E94232204684F8FF5098472946EE
:10365000D4F828310133C4F828314B1CC4F80031A8
:10366000204604F8018057F80C2C314684F8048178
:1036700002F05EFA103FBB45DCD14D46009BC4F81A
:1036800014316B68D4F81C210398013B013AFFF711
:10369000F9BAD4F82031002B01F0E9814B4E6127B3
:1036A0004FF00008D4F8001106F104090BE00B46B6
:1036B0000131B145C4F80011E75484F8047101F0F8
:1036C000F68116F8017FFF29F1D1D4E94232204674
:1036D00084F8FF8098470121D4F8282100230A4468
:1036E000C4F82821E5E7AA68394906A80FF076FC56
:1036F00006A80FF009FD002800F04F8506AE4FF038
:103700000008D4F8001106EB000909E00B4601316E
:10371000B145C4F80011E75484F8047100F03D8508
:10372000FF2916F8017BF1D1D4E94232204684F812
:10373000FF8098470121D4F8282100230A44C4F8C7
:103740002821E5E7D4F800112E7AFF2912D1D4E917
:1037500042320027204684F8FF709847D4F82801A9
:103760006B68D4F81C213946471C0398C4F82871AB
:10377000013B013A4F1CC4F80071665484F804619F
:10378000FFF780BA31462046AA68FFF77FF9204646
:10379000EA683146FFF77AF96B68D4F81C21039880
:1037A000013B013AFFF76EBA0A4F4FF06A084FF03B
:1037B0000009D4F8001107F10D0A1AE06CBE0108E7
:1037C00038BE01083CBE010848BF0108E4BC01083E
:1037D000D0BC0108C8BE01080B460131BA45C4F887
:1037E000001104F8038084F8048100F0DE8417F8E7
:1037F000018FFF29F0D1D4E94232204684F8FF90AE
:1038000098470121D4F8282100230A44C4F828212C
:10381000E4E7EB6819783B2904D1DB681B783C2B83
:1038200001F04B860123C4F818316B68013BFFF7A8
:1038300029BA0123C4F818316B68013BFFF722BA9B
:10384000DD4F4FF07B084FF00009D4F8001107F16D
:10385000070A0CE00B460131BA45C4F8001104F820
:10386000038084F8048100F0D48417F8018FFF29C5
:10387000F0D1D4E94232204684F8FF9098470121E4
:10388000D4F8282100230A44C4F82821E4E7CB4FC8
:103890004FF067084FF00009D4F8001107F11B0A38
:1038A0000CE00B460131BA45C4F8001104F803805E
:1038B00084F8048100F0A08417F8018FFF29F0D16B
:1038C000D4E94232204684F8FF9098470121D4F889
:1038D000282100230A44C4F82821E4E7B84F4FF018
:1038E00067084FF00009D4F8001107F11C0A0CE03A
:1038F0000B460131BA45C4F8001104F8038084F87E
:10390000048100F06C8417F8018FFF29F0D1D4E90D
:103910004232204684F8FF9098470121D4F82821AC
:1039200000230A44C4F82821E4E7A64F4FF06408B6
:103930004FF00009D4F8001107F1090A0CE00B461A
:103940000131BA45C4F8001104F8038084F80481F9
:1039500000F0E88417F8018FFF29F0D1D4E9423252
:10396000204684F8FF9098470121D4F828210023AD
:103970000A44C4F82821E4E7D5E9026100293FF4AC
:1039800081A906EB01094FF00008D4F8001109F1F4
:10399000FF39013E09E00B460131B145C4F8001181
:1039A000E75484F8047100F01F87FF2916F8017F9F
:1039B000F1D1D4E94232204684F8FF8098470121B2
:1039C000D4F8282100230A44C4F82821E5E77E4FD3
:1039D0004FF068084FF00009D4F8001107F1100A01
:1039E0000CE00B460131BA45C4F8001104F803801D
:1039F00084F8048100F0398517F8018FFF29F0D190
:103A0000D4E94232204684F8FF9098470121D4F847
:103A1000282100230A44C4F82821E4E76B4F4FF023
:103A200072084FF00009D4F8001107F1140A0CE0F5
:103A30000B460131BA45C4F8001104F8038084F83C
:103A4000048100F07A8517F8018FFF29F0D1D4E9BD
:103A50004232204684F8FF9098470121D4F828216B
:103A600000230A44C4F82821E4E7594F4FF05408D2
:103A70004FF00009D4F8001107F1180A0CE00B46CA
:103A80000131BA45C4F8001104F8038084F80481B8
:103A900000F0468517F8018FFF29F0D1D4E94232B2
:103AA000204684F8FF9098470121D4F8282100236C
:103AB0000A44C4F82821E4E7464F4FF054084FF079
:103AC0000009D4F8001107F1150A0CE00B4601318A
:103AD000BA45C4F8001104F8038084F8048100F0AA
:103AE000128517F8018FFF29F0D1D4E94232204620
:103AF00084F8FF9098470121D4F8282100230A4434
:103B0000C4F82821E4E7344F4FF067084FF000096C
:103B1000D4F8001107F1120A0CE00B460131BA4546
:103B2000C4F8001104F8038084F8048100F0DE84F6
:103B300017F8018FFF29F0D1D4E94232204684F8EA
:103B4000FF9098470121D4F8282100230A44C4F8A3
:103B50002821E4E7214F4FF06A084FF00009D4F81C
:103B6000001107F10E0A0CE00B460131BA45C4F80A
:103B7000001104F8038084F8048100F0AA8417F887
:103B8000018FFF29F0D1D4E94232204684F8FF901A
:103B900098470121D4F8282100230A44C4F8282199
:103BA000E4E70F4F4FF063084FF00009D4F800111D
:103BB00007F1190A23E000BF38BF010818BF010848
:103BC000F8BE0108D8BE010824BE01080CBE0108D9
:103BD000F0BD0108D8BD0108C4BD0108B4BD01088D
:103BE00098BD01080B460131BA45C4F8001104F82C
:103BF000038084F8048100F05F8417F8018FFF29A7
:103C0000F0D1D4E94232204684F8FF909847012150
:103C1000D4F8282100230A44C4F82821E4E7E04F1F
:103C20004FF076084FF00009D4F8001107F1100AA0
:103C30000CE00B460131BA45C4F8001104F80380CA
:103C400084F8048100F02B8417F8018FFF29F0D14C
:103C5000D4E94232204684F8FF9098470121D4F8F5
:103C6000282100230A44C4F82821E4E7CD4F4FF06F
:103C70006E084FF00009D4F8001107F1140A0CE0A7
:103C80000B460131BA45C4F8001104F8038084F8EA
:103C9000048100F0F78317F8018FFF29F0D1D4E9F0
:103CA0004232204684F8FF9098470121D4F8282119
:103CB00000230A44C4F82821E4E7BB4F4FF07408FE
:103CC0004FF00009D4F8001107F10F0A0CE00B4681
:103CD0000131BA45C4F8001104F8038084F8048166
:103CE00000F0668517F8018FFF29F0D1D4E9423240
:103CF000204684F8FF9098470121D4F8282100231A
:103D00000A44C4F82821E4E7A84F4FF074084FF0A4
:103D10000009D4F8001107F1110A0CE00B4601313B
:103D2000BA45C4F8001104F8038084F8048100F057
:103D3000328517F8018FFF29F0D1D4E942322046AD
:103D400084F8FF9098470121D4F8282100230A44E1
:103D5000C4F82821E4E7964F4FF074084FF00009AB
:103D6000D4F8001107F10C0A0CE00B460131BA45FA
:103D7000C4F8001104F8038084F8048100F0FE8484
:103D800017F8018FFF29F0D1D4E94232204684F898
:103D9000FF9098470121D4F8282100230A44C4F851
:103DA0002821E4E7834F4FF063084FF00009D4F86F
:103DB000001107F1170A0CE00B460131BA45C4F8AF
:103DC000001104F8038084F8048100F09F8417F840
:103DD000018FFF29F0D1D4E94232204684F8FF90C8
:103DE00098470121D4F8282100230A44C4F8282147
:103DF000E4E7714F4FF056084FF00009D4F8001176
:103E000007F1070A0CE00B460131BA45C4F800116E
:103E100004F8038084F8048100F06B8417F8018FA4
:103E2000FF29F0D1D4E94232204684F8FF90984728
:103E30000121D4F8282100230A44C4F82821E4E70A
:103E40005E4F4FF076084FF00009D4F8001107F1EB
:103E50000A0A0CE00B460131BA45C4F8001104F817
:103E6000038084F8048100F0378417F8018FFF295C
:103E7000F0D1D4E94232204684F8FF9098470121DE
:103E8000D4F8282100230A44C4F82821E4E7D4F810
:103E90000011FF290CD1D4E942320027204684F8D2
:103EA000FF7098473946D4F828310133C4F82831D7
:103EB0007E234A1CC4F80021635484F80431204650
:103EC000EA683146FEF7E2FD6B68D4F81C210398DE
:103ED000013B013AFEF7D6BE2046EA683146FEF7BE
:103EE000D5FD6B68D4F81C210398013B013AFEF71D
:103EF000C9BED5F80880B8F1000F40F04585304EB6
:103F00007427D4F8001106F103090BE00B460131C8
:103F1000B145C4F80011E75484F8047100F0268616
:103F200016F8017FFF29F1D1D4E94232204684F806
:103F3000FF8098470121D4F8282100230A44C4F8BF
:103F40002821E5E716F0040840F0CD84D5E90261A8
:103F500000293EF497AE06EB010909F1FF39D4F8C8
:103F60000011013E09E00B460131B145C4F80011D2
:103F7000E75484F8047100F01186FF2916F8017FD8
:103F8000F1D1D4E94232204684F8FF8098470121DC
:103F9000D4F8282100230A44C4F82821E5E700BF0B
:103FA00084BD010880BD01086CBD010858BD010831
:103FB00048BD010824BD010818BD01080CBD010859
:103FC000E8BE01080123C4F818316B68013BFEF715
:103FD00059BED04F31462046AA68FEF757FD4FF034
:103FE00020084FF00009D4F8001107F1070A0CE08F
:103FF0000B460131BA45C4F8001104F8038084F877
:10400000048100F0D28217F8018FFF29F0D1D4E9A2
:104010004232204684F8FF9098470121D4F82821A5
:1040200000230A44C4F82821E4E7BB4F3146204668
:10403000AA68FEF72BFD4FF05B084FF00009D4F89B
:10404000001107F1040A0CE00B460131BA45C4F82F
:10405000001104F8038084F8048100F0CB8217F883
:10406000018FFF29F0D1D4E94232204684F8FF9035
:1040700098470121D4F8282100230A44C4F82821B4
:10408000E4E700237207D4F81481D4F84871D5F816
:104090000890C4F81431C4F8485107D599F8003095
:1040A00023B9D9F80C20062A01F0C3824A463146CA
:1040B0002046FEF7EBFC94F804313C2B00F06686BA
:1040C000D4F80011FF290DD1D4E942324FF0000994
:1040D000204684F8FF9098474946D4F828310133A8
:1040E000C4F828313C234A1CC4F80021635484F8E6
:1040F000043131462046EA68FEF7C8FC94F80431E2
:104100003E2B00F02686D4F80011FF290CD1D4E90B
:1041100042320026204684F8FF6098473146D4F8A2
:1041200028310133C4F828313E234A1CC4F8002149
:10413000635484F804316B68D4F81C210398C4F8E4
:104140001481C4F84871013B013AFEF79BBDD9F8D0
:104150000820FEF7A0BDBCF1010F40F26C83C4F84B
:104160001421FFF74DBA2046AA683146FEF78EFCAF
:104170006B68D4F81C210398013B013AFEF782BD1D
:104180002046AA683146FEF781FC6B68D4F81C21F2
:104190000398013B013AFEF775BD6B68D4F81C210A
:1041A0000398013B013AFEF76DBD2046AA683146EF
:1041B000FEF76CFC6B68D4F81C210398013B013AB4
:1041C000FEF760BD2046AA683146FEF75FFC6B68CB
:1041D000D4F81C210398013B013AFEF753BD204659
:1041E000AA683146FEF752FC6B68D4F81C2103988C
:1041F000013B013AFEF746BD2046AA683146FEF76C
:1042000045FC6B68D4F81C210398013B013AFEF78A
:1042100039BDD4F8203131460133C4F8203120466D
:10422000AA68FEF733FCD4F820313C4E013B292725
:104230004FF00008D4F80011C4F8203106F101094C
:104240000AE00B460131B145C4F80011E75484F887
:10425000047111D016F8017FFF29F2D1D4E942325E
:10426000204684F8FF8098470121D4F828210023B4
:104270000A44C4F82821E6E7EA682949013206A879
:104280000EF0ACFE06A80EF03FFF10B306AE4FF0E6
:104290000008D4F8001106EB000908E00B460131D4
:1042A000B145C4F80011E75484F8047113D0FF2914
:1042B00016F8017BF2D1D4E94232204684F8FF801F
:1042C00098470121D4F8282100230A44C4F8282162
:1042D000E6E7D4F80011FF290CD1D4E942320026D8
:1042E000204684F8FF6098473146D4F828310133DE
:1042F000C4F828317D234A1CC4F80021635484F893
:1043000004316B68D4F81C210398013B013AFEF795
:10431000B9BC00BF58BF0108B4BC010844BF0108C4
:10432000D0BC010831462046AA68FEF7AFFBD4F89E
:104330000011FF290CD1D4E942320026204684F82E
:10434000FF6098473146D4F828310133C4F828314A
:1043500029234A1CC4F80021635484F804316B6893
:10436000D4F81C210398013B013AFEF78BBC204690
:10437000EA683146FEF78AFB6B68D4F81C21039883
:10438000013B013AFEF77EBCD9F804603378613B0B
:10439000192B1AD8FF290DD1D4E942320026204624
:1043A00084F8FF609847D4F82831C4F800610133DD
:1043B000C4F828312023D4F80021511CC4F800117E
:1043C000A35484F80431D9F8046006EB080313F809
:1043D000013C202B08BF08F1FF38B8F1000F01F0B5
:1043E000F880013E4FF00009D4F80011B04409E014
:1043F0000B460131B045C4F80011E75484F804714C
:1044000000F0E381FF2916F8017FF1D1D4E94232AF
:10441000204684F8FF9098470121D4F828210023F2
:104420000A44C4F82821E5E7D4F8483133B1D4F878
:10443000101106AACDE90613C4F81021AA68137852
:10444000042B00F0C68331462046FEF71FFBD4F84C
:10445000483113B1069BC4F810316B68D4F81C21A5
:104460000398013B013AFEF70DBC2046AA6831468D
:10447000FEF70CFB6B68D4F81C210398013B013A52
:10448000FEF700BC2046AA683146FEF7FFFA6B68CB
:10449000D4F81C210398013B013AFEF7F3BB2046F8
:1044A000AA683146FEF7F2FA6B68D4F81C2103982B
:1044B000013B013AFEF7E6BB2046AA683146FEF70B
:1044C000E5FA6B68D4F81C210398013B013AFEF72A
:1044D000D9BB2046AA683146FEF7D8FA6B68D4F8F3
:1044E0001C210398013B013AFEF7CCBB2046AA6889
:1044F0003146FEF7CBFA6B68D4F81C210398013BD8
:10450000013AFEF7BFBB2046AA683146FEF7BEFA65
:104510006B68D4F81C210398013B013AFEF7B2BB4B
:104520002046AA683146FEF7B1FA6B68D4F81C2120
:104530000398013B013AFEF7A5BBD14F3146204617
:10454000EA68FEF7A3FA4FF020084FF00009D4F80C
:10455000001107F1040A0BE00B460131BA45C4F81B
:10456000001104F8038084F8048111D017F8018F3A
:10457000FF29F1D1D4E94232204684F8FF909847D0
:104580000121D4F8282100230A44C4F82821E5E7B2
:104590002046AA683146FEF779FA6B68D4F81C21E8
:1045A0000398013B013AFEF76DBB31462046EA68AD
:1045B000FEF76CFAD4F80011FF290CD1D4E942328D
:1045C0000026204684F8FF6098473146D4F8283109
:1045D0000133C4F828315D234A1CC4F80021635418
:1045E00084F804316B68D4F81C210398013B013A2C
:1045F000FEF748BB31462046EA68FEF747FAD4F892
:104600000011FF290CD1D4E942320026204684F85B
:10461000FF6098473146D4F828310133C4F8283177
:104620005D234A1CC4F80021635484F804316B688C
:10463000D4F81C210398013B013AFEF723BBAA687A
:104640009049013206A80EF0C9FC06A80EF05CFDE8
:1046500010B306AE4FF00008D4F8001106EB0009C5
:1046600008E00B460131B145C4F80011E75484F865
:10467000047113D0FF2916F8017BF2D1D4E942323C
:10468000204684F8FF8098470121D4F82821002390
:104690000A44C4F82821E6E7D4F80011FF290CD118
:1046A000D4E942320026204684F8FF60984731461C
:1046B000D4F828310133C4F828317D234A1CC4F8CA
:1046C0000021635484F804316B68D4F81C210398EA
:1046D000013B013AFEF7D6BA2046AA683146FEF7FA
:1046E000D5F96B68D4F81C210398013B013AFEF719
:1046F000C9BA2046AA683146FEF7C8F96B68D4F8F3
:104700001C210398013B013AFEF7BCBA5E4F3146CB
:104710002046AA68FEF7BAF94FF02D084FF00009BD
:10472000D4F8001107F1030A0BE00B460131BA453A
:10473000C4F8001104F8038084F8048111D017F83C
:10474000018FFF29F1D1D4E94232204684F8FF904D
:1047500098470121D4F8282100230A44C4F82821CD
:10476000E5E72046EA683146FEF790F96B68D4F831
:104770001C210398013B013AFEF784BA2046AA683F
:104780003146FEF783F96B68D4F81C210398013B8E
:10479000013AFEF777BA2046AA683146FEF776F965
:1047A0006B68D4F81C210398013B013AFEF76ABA02
:1047B0002046AA683146FEF769F96B68D4F81C21D7
:1047C0000398013B013AFEF75DBA6B68D4F81C21EF
:1047D0000398013B013AFEF755BA4A463146204656
:1047E00001F0A6F9FEF76EBA6B68D4F81C210398A5
:1047F000013B013AFEF746BA019DD9F81C216B68CE
:104800004C460398013B013AFEF73CBA0F4620465E
:104810003146EA68D4F82861FEF738F9D4F828312F
:104820009E4200F051846B68D4F81C210398013B30
:10483000013AFEF727BAD8F80880B8F1000F00F067
:104840007886042F02F110027EF4A9AE0122C4E999
:104850004532FEF716BFAB681A46BAF1000F7EF478
:10486000D4AD6B68D4F81C210398013B013AFEF7E4
:1048700009BA064E5F274FF0000806F1050912E05D
:1048800004BE0108D0BC010840BD010864BE010897
:104890000B460131B145C4F80011E75484F80471A6
:1048A00011D016F8017FFF29F2D1D4E94232204617
:1048B00084F8FF8098470121D4F8282100230A4476
:1048C000C4F82821E6E76B68D4F81C210398013B63
:1048D000013AFEF7D7B96B68D4F81C210398013B65
:1048E000013AFEF7CFB9D5E9026106EB010846456A
:1048F000BEF4C8A94FF0000909E04B1CC4F8003110
:10490000675484F804710136B04540F24F81A8EB3A
:104910000603032B377801DD5F2F11D0D4F8001187
:10492000FF29EAD1D4E94232204684F8FF90984723
:104930000123D4F8282100211A44C4F82821DDE7F6
:1049400073785F2BEAD1B378552BE7D1F31C9845E8
:10495000E4D9002005E01746984507EB001000F069
:1049600095879A4613F8017BA7F130025FFA82FC23
:10497000BCF1090FA7F14101EDD90529A7F16102A9
:1049800000F2DE85373FE7E7CD4E7B274FF0000989
:10499000D4F8001106F1050A0AE00B460131B245D0
:1049A000C4F80011E75484F8047111D016F8017F9F
:1049B000FF29F2D1D4E94232204684F8FF9098478B
:1049C0000121D4F8282100230A44C4F82821E6E76D
:1049D0004246BC4906A80EF001FB06A80EF094FB67
:1049E000814608B306AE4FF00008D4F80011B14478
:1049F00008E00B460131B145C4F80011E75484F8D2
:104A0000047111D0FF2916F8017BF2D1D4E94232AA
:104A1000204684F8FF8098470121D4F828210023FC
:104A20000A44C4F82821E6E7D4F80031FF2B0FD15F
:104A300000261946D4E94232204684F8FF609847A0
:104A40003346D4F82821C4F800610132C4F8282183
:104A50007D22591CC4F80011E25484F804216B68CB
:104A6000D4F81C210398013B013AFEF70BB920460C
:104A700005F10801FBF794FE0246002800F071855D
:104A800003782F2B00F06285D4F8107120463B6824
:104A90003146C4F81031FDF7F9FF6B68D4F81C21DA
:104AA0000398C4F81071013B013AFEF7EBB8AA680D
:104AB0008449013206A80EF091FA06A80EF024FBF4
:104AC000814608B306AE4FF00008D4F80011B14497
:104AD00008E00B460131B145C4F80011E75484F8F1
:104AE000047111D0FF2916F8017BF2D1D4E94232CA
:104AF000204684F8FF8098470121D4F8282100231C
:104B00000A44C4F82821E6E76B68D4F81C2103980E
:104B1000013B013AFEF7B6B8D6E9026100293EF43E
:104B2000B1A806EB01094FF00008D4F8001109F113
:104B3000FF39013E08E00B460131B145C4F80011D0
:104B4000E75484F8047121D0FF2916F8017FF2D1CF
:104B5000D4E94232204684F8FF8098470121D4F8F6
:104B6000282100230A44C4F82821E6E76B68D4F81A
:104B70001C210398013B013AFEF784B86B68D4F816
:104B80001C210398013B013AFEF77CB86B68D4F80E
:104B90001C210398013B013AFEF774B86B68D4F806
:104BA0001C210398013B013AFEF76CB86B68D4F8FE
:104BB0001C210398013B013AFEF764B8D4F80011B8
:104BC000FEF797BA31462A46204600F0B1FFFEF7BD
:104BD0007DB9314620469268FDF758FFD4F8483138
:104BE00013B1069BC4F8103194F804313C2B00F04B
:104BF0005185D4F80031FF2B0FD100271946D4E995
:104C00004232204684F8FF7098473B46D4F828216A
:104C1000C4F800710132C4F828213C22591CC4F8A0
:104C20000011E25484F80421AB683146DA6820466A
:104C3000FDF72CFF94F804313E2B00F00E85D4F8DC
:104C40000031FF2B0FD100261946D4E9423220460D
:104C500084F8FF6098473346D4F82821C4F80061EF
:104C60000132C4F828213E22591CC4F80011E25434
:104C700084F80421FFF7F1BB134FD4F8001107F1BA
:104C800002090AE00B460131B945C4F8001104F8E5
:104C9000038084F804813EF46AA8FF2917F8018B89
:104CA000F0D1D4E94232204684F8FFA09847012190
:104CB000D4F8282100230A44C4F82821E4E700BFDF
:104CC000F0BE0108D0BC0108BCBC0108D4F800311A
:104CD000FF2B0FD100271946D4E94232204684F831
:104CE000FF7098473B46D4F82821C4F80071013280
:104CF000C4F828215B22591CC4F80011E25484F83E
:104D0000042131462046EA68FDF7C0FED4F80031A0
:104D1000FF2B0FD100261946D4E94232204684F8F1
:104D2000FF6098473346D4F82821C4F80061013267
:104D3000C4F828215D22591CC4F80011E25484F8FB
:104D400004216B68D4F81C210398013B013AFDF75C
:104D500099BFD4F80031FF2B0FD100261946D4E9B2
:104D60004232204684F8FF6098473346D4F8282121
:104D7000C4F800610132C4F828212022591CC4F86B
:104D80000011E25484F80421FFF7BDB9D4F80031D2
:104D9000FF2B10D14FF000091946D4E942322046CA
:104DA00084F8FF9098474B46D4F82821C4F8009126
:104DB0000132C4F828212022591CC4F80011E25401
:104DC00084F80421FFF77CB9CE4F4FF0000AD4F8E5
:104DD000001107F105090AE00B460131B945C4F895
:104DE000001104F8038084F804813EF45DA9FF29D2
:104DF00017F8018BF0D1D4E94232204684F8FFA0A5
:104E000098470121D4F8282100230A44C4F8282116
:104E1000E4E726F0600605F10C0231462046D4F89E
:104E2000143101F08DF9AA68002A00F09784204619
:104E30003146FDF72BFE6B68D4F81C210398013B2B
:104E4000013AFDF71FBF93681F7C062F00F2F28026
:104E5000002F3DF4A5AFEB6893F80080B8F1000F88
:104E60007DF49EAFBCF13E0F00F0BD85314620467B
:104E7000EA68023FFDF70AFE042F00F24786DFE8EA
:104E800017F0D805220615060806FB05D8F80830E5
:104E90009D49D3F800A0504603F002FF3B7810B9BB
:104EA000032B00F05785392B00F034855046974985
:104EB00003F0F6FE8146002800F0EB849AF80030FB
:104EC000732B2BD19AF80130502B27D19AF802304E
:104ED00023BB1E4603E0FF68002F00F0B1823B7841
:104EE0002F2B40F0AD82BB68002B00F0A9821A780E
:104EF0004B2A18BF0136EED120469968FBF760FCBB
:104F0000024648B1002204E0816829B1C06801323C
:104F100010B101782F29F7D01644DCE7424631461C
:104F2000204601F019FC9AF80030672B13D19AF84B
:104F30000130732B0FD19AF8023063B93A462046FC
:104F40003146FDF7A3FD6B68D4F81C210398013BA3
:104F5000013AFDF797BE50466D4903F0A1FE804629
:104F600000287EF440A9D4F80031FF2B0ED1194659
:104F7000D4E9423284F8FF00204698474346D4F8EB
:104F80002821C4F800810132C4F828214FF0280CF0
:104F9000581CC4F800013A4604F803C031462046C4
:104FA00084F804C1FDF772FDD4F80031FF2B0FD156
:104FB00000261946D4E94232204684F8FF6098471B
:104FC0003346D4F82821C4F800610132C4F82821FE
:104FD0002922591CC4F80011E25484F804216B689A
:104FE000D4F81C210398013B013AFDF74BBE002287
:104FF000194684F8FF202046D4E94232984701211F
:105000002922D4F82831C4F800110B44C4F82831FF
:10501000227084F804212B783E2B7DF4EFAE2D23F3
:10502000D4F80021511CC4F80011A35484F80431B1
:10503000FDF7E4BE072F7DF4B3AEEB6819780029C5
:105040007DF4AEAED96801297DF4AAAEBCF13D0F66
:105050007DF4A6AE9B681B78302B00F0B184312B19
:105060007DF49EAE042220462A49FBF73DF96B6889
:10507000D4F81C210398013B013AFDF703BE6B688D
:10508000D4F81C210398013B013AFDF7FBBD012A2E
:105090003EF6BFAA042F0CF1100AACF1100900F083
:1050A0004A8299E80F008CE80F0000234AF81C8C14
:1050B0004AF8183CD8F80880C4F814C14AE905E950
:1050C000D4460137FEF78EBAD4F80031BB427FF4E4
:1050D000AAAB6B68D4F81C21023F0398C4F8007196
:1050E000013B013AFDF7CEBD2046AA683146FDF7E7
:1050F000CDFC6B68D4F81C210398013B013AFDF705
:10510000C1BD00BF54BE010888BE01088CBE0108A5
:10511000B4C10108C0BE01080F46FDF7F5BDD14F6F
:105120004FF0000BD4F8001107F10D0A09E00A4610
:105130000131BA45C4F8001104F8029084F80491D2
:1051400011D0FF2917F8019BF1D1D4E94232204652
:1051500084F8FFB098470121D4F8283100220B448D
:10516000C4F82831E5E7D8F80C20BF49013206A879
:105170000DF034FF06A80DF0C7FF814610B306AF4F
:105180004FF0000BD4F80011B94409E00A46013190
:10519000B945C4F8001104F802A084F804A111D0A4
:1051A000FF2917F801ABF1D1D4E94232204684F847
:1051B000FFB098470121D4F8283100220B44C4F8ED
:1051C0002831E5E7A94F4FF0000BD4F8001107F1A3
:1051D000030A09E00A460131BA45C4F8001104F88F
:1051E000029084F8049111D0FF2917F8019BF1D1A6
:1051F000D4E94232204684F8FFB098470121D4F820
:10520000283100220B44C4F82831E5E7D8F808809B
:10521000FDF7B4BDFF297FF402AFD4E942324FF06D
:105220000008204684F8FF809847D4F82831C4F855
:1052300000810133C4F82831F1E60123C4F81831A4
:10524000FDF726BF26F06006FDF77CBED4F81401FA
:1052500006ABC4F81431D4F81031CDE907510690EB
:10526000314620460993FDF711FC069B089FC4F8C0
:105270001431002F40F0F482D4F80031FF2B0ED10E
:105280001946D4E94232204684F8FF7098473B46DD
:10529000D4F82821C4F800710132C4F82821202252
:1052A000591CC4F80011E25484F80421FDF74ABEE9
:1052B000D4E94CC7002F40F39581E646924604E0BE
:1052C0009F420EF1080E00F08C815CF83320013310
:1052D0009145F5D10B4603E05B68002B00F04E8250
:1052E0001A68914503D09542F6D18B42F4D009F16A
:1052F00008012046FBF754FA8146A0B1002799F82F
:1053000000302F2B7DF403AED4F824110029C0F215
:1053100064834846FBF732FA814600287DF4F7ADF6
:105320000FB1C4F810810123C4F818316B68D4F8A8
:105330001C210398013B013AFDF7A4BC6B68D4F82B
:105340001C210398013B013AFDF79CBC1B78A3F19B
:105350006301012903D9723B012B3DF61FAC314695
:10536000204601F0F9F9D4F80031FF2B0FD10027C6
:105370001946D4E94232204684F8FF7098473B46EC
:10538000D4F82821C4F800710132C4F828213C2245
:10539000591CC4F80011E25484F80421EB68344F1E
:1053A000314620469A68FDF771FB4FF00008D4F8AB
:1053B000001107F1020A09E00B46591CBA45C4F86E
:1053C000001104F8039084F8049110D0FF2917F815
:1053D000019BF1D1D4E94232204684F8FF809847FE
:1053E000D4F8282100230132C4F82821E5E7EB682E
:1053F0003146DA682046FDF749FBD4F80031FF2B2F
:105400000FD100261946D4E94232204684F8FF60C5
:1054100098473346D4F82821C4F800610132C4F813
:1054200028212922591CC4F80011E25484F80421CF
:105430006B68D4F81C210398013B013AFDF722BCAC
:105440003246094906A80DF0C9FD06A80DF05CFE1C
:10545000074650B306AE4FF00008D4F800113744A9
:1054600012E000BFC0BC0108D0BC0108D4BC0108D8
:1054700090BE01080B46591CB742C4F8001104F84D
:10548000039084F8049110D0FF2916F8019BF1D104
:10549000D4E94232204684F8FF809847D4F8282186
:1054A00000230132C4F82821E5E76B68D4F81C21F9
:1054B0000398013B013AFDF7E5BB31462046AA6857
:1054C00005F10C0301F0D4F90746002840F0A9814A
:1054D000D5E902A2DAF80810D3680868D949D2F8E9
:1054E00008B0D3E9029803F0DBFB002840F05D81AF
:1054F0005A463146204601F06BF952463146204665
:1055000001F02AF94A463146204601F061F90322AA
:105510002046CD49FAF7E8FE42462046314601F0E2
:1055200057F96B68D4F81C210398013B013AFDF749
:10553000A9BBC4F814210123C4F81831FEF7A1B89F
:10554000052A00F21382573FFFF706BAD4F8241158
:105550000029FFF699AAFBF711F9024600287FF40B
:1055600093AA0123C4F818316B68D4F81C2103985E
:10557000013B013AFDF786BB9B689A68012A7DF4DE
:105580007BAB5B681B783E2B7DF476ABD4F80031A7
:10559000FF2B0FD100261946D4E94232204684F869
:1055A000FF6098473346D4F82821C4F800610132DF
:1055B000C4F828212922591CC4F80011E25484F8A7
:1055C00004216B68D4F81C210398013B013AFDF7D4
:1055D00059BB6B68D4F81C210398013B013AFDF7D5
:1055E00051BB5246D4F838319F4280F21B827B1C5B
:1055F0000CEBC70EC4F834314CF83790D4F8107166
:105600000EF1040E002F00F00A82D4E950139942E3
:1056100001F1010C80F20682D4F83C31C4F840C19B
:1056200003EBC10379685960CEF800303F689E46AD
:10563000E8E78649D9F808000DF094FD00287EF4CB
:1056400035AD31462046EA68FDF720FA02222046B1
:105650007F49FAF749FEFEF76EBDD4F80031FF2B03
:105660000FD100261946D4E94232204684F8FF6063
:1056700098473346D4F82821C4F800610132C4F8B1
:1056800028212022591CC4F80011E25484F8042176
:10569000FFF7D5BAD4F80031FF2B0FD100271946F8
:1056A000D4E94232204684F8FF7098473B46D4F84C
:1056B0002821C4F800710132C4F828212022591C85
:1056C000C4F80011E25484F80421FFF792BA484666
:1056D000604903F0E5FA002861D1EB6831462046C5
:1056E000DA6801F075F8FDF7C2BA9A689168012985
:1056F0007DF463AA526812783E2A7DF45EAAD4F83B
:105700000031FF2B0ED11946D4E9423284F8FF0054
:10571000204698473B46D4F82821C4F8007101324E
:10572000C4F828212822591CC4F80011E25484F836
:105730000421AB68FDF741BA31462046AA6801F062
:1057400047F8032220464449FAF7CEFD6B68D4F8A7
:105750001C210398013B013AFDF794BA6B68D4F819
:105760001C210398013B013AFDF78CBAD8F8088058
:10577000B8F1000F3FF4DFAEFDF732BFDEF80430C2
:10578000D4F8108109F108012046C4F81031FBF764
:1057900007F8814600283FF4C4AD0127AFE5424633
:1057A0003146204600F0D8FF97E7042220462B49D7
:1057B000FAF79AFDDBF80830F3B15A463146204635
:1057C00001F006F8D4F80031FF2B0ED11946D4E9C8
:1057D0004232204684F8FF7098473B46D4F828218F
:1057E000C4F800710132C4F828212022591CC4F8E1
:1057F0000011E25484F804214A4631462046FDF760
:1058000045F9B8F1000F14D042462046314600F069
:10581000DFFF6B68D4F81C210398013B013AFDF7C8
:1058200031BA6B68D4F81C210398013B013AFDF7AB
:1058300029BA6B68D4F81C210398013B013AFDF7A3
:1058400021BA00BF9CBE0108A0BE0108D8BC010857
:10585000E0BC010894BE0108E4BE0108A4BE010832
:105860006B68D4F81C210398013B013AFDF70ABA92
:10587000EA6831462046FDF709F9009A089BC4F80A
:105880001421002B3DF4FCABFDF702BC5F27FFF7B2
:1058900045B839462046FAF793FF30B908E08368E7
:1058A00033B1C06809F1010910B103782F2BF6D08C
:1058B0004A469A4906A80DF091FB06A80DF024FC73
:1058C00000B34FF0000806AE3718D4F8001116F8F0
:1058D000019BFF290DD1D4E94232204684F8FF8094
:1058E00098470021D4F82831C4F800810133C4F866
:1058F00028314B1CB742C4F8003104F8019084F8F9
:105900000491E2D16B68D4F81C210398013B013A61
:10591000FDF7B8B931462046BA6800F059FF424653
:105920002046314600F018FF6B68D4F81C2103981C
:10593000013B013AFDF7A6B9D36831461B782046F2
:10594000292B1CBF0123C4F81831926800F040FFD6
:10595000FDF744B9BB681A78012A7FF4A7AAFA6850
:105960001278292A08BF1F46FFF7A0BAD0458DD963
:105970005F2F8BD1FF283EF6D1AFD4F80011C7B20C
:10598000FF290DD1D4E94232204684F8FF90984790
:105990000021D4F82831C4F800910133C4F828312B
:1059A0004B1CC4F800315646675484F80471FEF766
:1059B000AABF42463146204600F0CEFEFDF713BC9A
:1059C000052220465649FAF78FFC6B68D4F81C2153
:1059D0000398013B013AFDF755B92B782F2B7DF445
:1059E000A0AAFDF79FBAD4F80031FF2B0ED11946BB
:1059F000D4E94232204684F8FF8098474346D4F8E1
:105A00002821C4F800810132C4F828212D22591C14
:105A1000C4F80011E25484F80421FFF727BACEF845
:105A2000007064E40123C4F818316B68013BFDF792
:105A300029B9D4F80031FF2B0FD100261946D4E93B
:105A40004232204684F8FF6098473346D4F8282134
:105A5000C4F800610132C4F828217522591CC4F829
:105A60000011E25484F804216B68D4F81C210398D7
:105A7000013B013AFDF706B9032220462949FAF70E
:105A800033FC6B68D4F81C210398013B013AFDF705
:105A9000F9B8022220462449FAF726FC6B68D4F8AC
:105AA0001C210398013B013AFDF7ECB80222204685
:105AB0001E49FAF719FC6B68D4F81C210398013BC6
:105AC000013AFDF7DFB8D4F80031FF2B0FD10026E3
:105AD0001946D4E94232204684F8FF60984733469D
